:1000000049C06FC162C061C060C05FC05EC05DC0FA
:100010005CC05BC05AC059C058C057C056C055C01C
:1000200054C053C052C051C050C04FC04EC04DC04C
:100030004CC04BC009021200010100C00A090400B3
:1000400000000000000012011001FF000008C016AF
:10005000DC05000101020001160367004D00650088
:100060007400650072002D007300740064002203A8
:100070007700770077002E00670072007500760029
:1000800069006E00390078002E0063006F006D007B
:100090000403090411241FBECFEFD4E0DEBFCDBF9F
:1000A00011E0A0E0B1E0E4E5F7E002C005900D92B8
:1000B000A230B107D9F711E0A2E0B1E001C01D9272
:1000C000A433B107E1F7C6D243C39ACFCF93DF93EE
:1000D00080911A01835087FD8DC090911701209166
:1000E00016012D3209F084C0883009F081C0CCE0BF
:1000F000D0E0C91BD109C25EDE4F83EC80930A01B8
:100100008AE580930001109202012881822F807677
:1001100019F0CE0159D263C09A81109213018981DE
:1001200081110BC02F7119F481E08093130110929B
:10013000140123E131E082E04EC0853019F4909340
:100140001B013DC08630A9F58B81813019F486E40E
:1001500090E004C0823041F484E390E09093190170
:100160008093180182E121C08330F1F4911108C01D
:1001700080E990E0909319018093180184E015C004
:10018000913041F48EE690E090931901809318012C
:1001900082E20BC0923041F488E590E0909319011F
:1001A0008093180186E101C080E090E49093020101
:1001B00016C0883069F0893029F490931D0123E13D
:1001C00031E004C023E131E08A3021F080E003C057
:1001D0002DE131E081E030931901209318019F81D6
:1001E000911104C09E81981708F4892F8093010112
:1001F00010921A018091000184FF46C08091010194
:100200008F3F09F441C0C82F893008F0C8E08C1B2B
:100210008093010180910A0198E8892780930A015F
:10022000CC2331F120911801309119018091020104
:1002300086FF0BC0F901ABE0B1E08C2F8A0F9491DF
:100240009D9331968A13FBCF09C0D901EBE0F1E011
:100250008C2F8E0F9D9191938E13FCCF8C2F8150FC
:1002600090E00196820F931F9093190180931801DB
:100270006C2F8BE091E031D0CC5FCC3019F08FEF58
:1002800080930101C093000184E199B19C7031F425
:100290008150D9F710921B0110921501DF91CF9177
:1002A0000895E9E6F0E0808182608083E89A08950D
:1002B000A82FB92F80E090E041E050EA609530E04F
:1002C00009C02D9182279795879510F0842795274F
:1002D000305EC8F36F5FA8F30895EADF8D939D93B6
:1002E0000895CF93CFB7CF93C3954B9BE9F74B9B23
:1002F00009C04B9B07C04B9B05C04B9B03C04B9B4E
:1003000001C0A1C0DF93C0911701DD27C25EDE4F9F
:100310004B9B02C0DF91EBCF2F930F931F9309B13B
:100320002FEF03FB20F94F933F9319B14FEF0127B4
:1003300003FB21F93BE031C04E7F012F19B1216051
:1003400028C0102F4D7F2260000009B129C04B7FCB
:100350002460012F000019B12BC019B1477F28601C
:100360002AC04F7E09B120612CC04F7D19B1206297
:100370002FC04F7B09B1206432C0422709B1499395
:100380004FEF0000102713FB20F919B11C70C9F1C1
:10039000297F91F2012703FB21F909B1237F89F21B
:1003A000315058F1102713FB22F919B1277E79F249
:1003B000012703FB23F92F7C81F209B1102713FBDE
:1003C00024F92F7971F200C019B1012703FB25F937
:1003D0002F7359F200C009B1102713FB26F9223000
:1003E00040F200C019B1012703FB27F9243028F699
:1003F0004F77206819B10000F9CF11E01CBB00272E
:1004000017C03B503195C31BD04011E01CBB088185
:10041000033CE9F00B34D9F0209115011981110F3B
:100420001213EDCF093641F10D3211F0013E39F7CB
:1004300000931C013F914F911F910F912F91DF91DC
:10044000CCB3C0FD51CFCF91CFBFCF9118952091A4
:100450001C01222379F310911A01112311F5343074
:1004600012F130931A0120931601109117013BE00D
:10047000311B3093170117C000911A0101308CF421
:100480000AE53091000134FD10C000930001CAE07C
:10049000D1E00FC02795A8F45150A9F4220F000015
:1004A000F9CF4AE503C042ED01C0432FC4E1D0E0DB
:1004B00032E01AB11C605B9A1AB90BB120E41CE05F
:1004C0005F93012756E00BB9279520F4515021F492
:1004D000220FF9CF012756E000003B5A0BB9D0F2AA
:1004E000279528F4515029F4220F0000F9CF012755
:1004F00056E027950BB920F4515021F4220FF9CF83
:10050000012756E0299133230BB921F6037F10917F
:100510001B01110FC651D0400BB911F010931501FA
:1005200011E01CBB08601AB1137F402F437F5F911D
:1005300000C000C00BB91AB94BB97CCF80FD5D9AE1
:1005400080FF5D982BB1982F9270990F990F990F9A
:100550002F7E922B9BB928B1982F9470990F990FE9
:10056000990F2F7D922B98B928B1982F9870990FD9
:100570002F7E922B98B998B1282F207130E03595B5
:100580002795977F922B98B998B1282F207230E049
:1005900053E0359527955A95E1F79B7F922B98B9B3
:1005A00098B1282F207430E065E0359527956A953D
:1005B000E1F79D7F922B98B998B1881F8827881FF3
:1005C0009E7F892B88B90895CF93DF93EC0188E053
:1005D00091E090931901809318018981811107C0DE
:1005E0008A81809308018B818093090106C0813044
:1005F00031F4109208011092090182E028C0823083
:10060000B1F481E090E00C8002C0880F991F0A9439
:10061000E2F7019793DF40EF50EC63E070E0409326
:1006200004015093050160930601709307018981CD
:10063000833029F48C8181708093030107C084305A
:1006400029F486B18093080181E001C080E0DF9148
:10065000CF91089588E10FB6F894809360001092CE
:1006600060000FBE14B88FE385B987B918B882EB64
:100670008AB91BB88BB1837F8BB98AB18C608AB978
:1006800008E010E0FF24F3948F2D58DF2FE789EA6C
:1006900093E0215080409040E1F700C00000FF0C43
:1006A0000150110989F780E049DF2FEF8DE399E4CC
:1006B000215080409040E1F700C000008AB1837F64
:1006C0008AB92EE088E190E00FB6F894A89580935F
:1006D00060000FBE2093600085E085BDE2DD789468
:1006E00010E0A895F3DC8091040190910501A091A0
:1006F0000601B09107010097A105B10569F01150FD
:1007000059F40197A109B10980930401909305015F
:10071000A0930601B0930701809104019091050117
:10072000A0910601B0910701892B8A2B8B2B09F42C
:100730005D9880910301882349F02BB1CE01882771
:1007400090782F77292B2BB92197CBCF5F98C9CFE2
:04075000F894FFCF4B
:020754005AFF4A
:00000001FF
