:100000004BC071C164C063C062C061C060C05FC0EA
:100010005EC05DC05CC05BC05AC059C058C057C00C
:1000200056C055C054C053C052C051C050C04FC03C
:100030004EC04DC009021200010100C00A090400AF
:1000400000000000000012011001FF000008C016AF
:10005000DC050001010200011A0354007200610076
:1000600066006600690063004D006500740065006D
:10007000720022037700770077002E00670072007D
:100080007500760069006E00390078002E0063006C
:100090006F006D000403090411241FBECFEFD4E0EC
:1000A000DEBFCDBF11E0A0E0B1E0E8ECF6E002C0B9
:1000B00005900D92A230B107D9F711E0A2E0B1E0AE
:1000C00001C01D92A433B107E1F788D2FBC298CFDB
:1000D000CF93DF9380911A01835087FD8DC090915B
:1000E0001701209116012D3209F084C0883009F0E3
:1000F00081C0CCE0D0E0C91BD109C25EDE4F83ECE9
:1001000080930A018AE58093000110920201288100
:10011000822F807619F0CE0113D263C09A8110929B
:100120001301898181110BC02F7119F481E0809333
:1001300013011092140123E131E082E04EC08530BA
:1001400019F490931B013DC08630A9F58B81813055
:1001500019F486E490E004C0823041F484E390E036
:10016000909319018093180182E121C08330F1F44A
:10017000911108C084E990E09093190180931801CF
:1001800084E015C0913041F482E790E0909319012A
:100190008093180182E20BC0923041F488E590E030
:1001A00090931901809318018AE101C080E090E4E6
:1001B0009093020116C0883069F0893029F4909339
:1001C0001D0123E131E004C023E131E08A3021F058
:1001D00080E003C02DE131E081E0309319012093EC
:1001E00018019F81911104C09E81981708F4892FEE
:1001F0008093010110921A018091000184FF46C092
:10020000809101018F3F09F441C0C82F893008F067
:10021000C8E08C1B8093010180910A0198E889272E
:1002200080930A01CC2331F12091180130911901FA
:100230008091020186FF0BC0F901ABE0B1E08C2F89
:100240008A0F94919D9331968A13FBCF09C0D901EF
:10025000EBE0F1E08C2F8E0F9D9191938E13FCCFEC
:100260008C2F815090E00196820F931F909319017B
:10027000809318016C2F8BE091E031D0CC5FCC30B3
:1002800019F08FEF80930101C093000184E199B1CF
:10029000967031F48150D9F710921B01109215011C
:1002A000DF91CF910895E9E6F0E08081826080835C
:1002B000E89A0895A82FB92F80E090E041E050EA35
:1002C000609530E009C02D9182279795879510F0B1
:1002D00084279527305EC8F36F5FA8F30895EADF9F
:1002E0008D939D930895CF93CFB7CF93C395499B9B
:1002F000E9F7499B09C0499B07C0499B05C0499B39
:1003000003C0499B01C0A1C0DF93C0911701DD2745
:10031000C25EDE4F499B02C0DF91EBCF2F930F935C
:100320001F9309B12FEF01FB20F94F933F9319B1B0
:100330004FEF012701FB21F93BE031C04E7F012F38
:1003400019B1216028C0102F4D7F2260000009B133
:1003500029C04B7F2460012F000019B12BC019B1B7
:10036000477F28602AC04F7E09B120612CC04F7D95
:1003700019B120622FC04F7B09B1206432C04227DF
:1003800009B149934FEF0000102711FB20F919B173
:100390001670C9F1297F91F2012701FB21F909B1FA
:1003A000237F89F2315058F1102711FB22F919B13E
:1003B000277E79F2012701FB23F92F7C81F209B115
:1003C000102711FB24F92F7971F200C019B1012710
:1003D00001FB25F92F7359F200C009B1102711FB59
:1003E00026F9223040F200C019B1012701FB27F99C
:1003F000243028F64F77206819B10000F9CF11E0BA
:100400001CBB002717C03B503195C31BD04011E0E7
:100410001CBB0881033CE9F00B34D9F02091150195
:100420001981110F1213EDCF093641F10D3211F080
:10043000013E39F700931C013F914F911F910F919D
:100440002F91DF91CCB3C0FD51CFCF91CFBFCF91D2
:10045000189520911C01222379F310911A01112380
:1004600011F5343012F130931A01209316011091D6
:1004700017013BE0311B3093170117C000911A019F
:1004800001308CF40AE53091000134FD10C0009376
:100490000001CAE0D1E00FC02795A8F45150A9F49B
:1004A000220F0000F9CF4AE503C042ED01C0432FFF
:1004B000C4E1D0E032E01AB11660599A1AB90BB112
:1004C00020E416E05F93012756E00BB9279520F44E
:1004D000515021F4220FF9CF012756E000003B5A7A
:1004E0000BB9D0F2279528F4515029F4220F0000BF
:1004F000F9CF012756E027950BB920F4515021F48C
:10050000220FF9CF012756E0299133230BB921F6A9
:10051000097F10911B01110FC651D0400BB911F08A
:100520001093150111E01CBB02601AB1197F402F16
:10053000497F5F9100C000C00BB91AB94BB97CCF9D
:10054000FC0188E091E0909319018093180181816A
:10055000811107C082818093080183818093090102
:1005600006C0813031F4109208011092090182E036
:100570000895823011F584818370823041F0833098
:1005800059F0813011F088E003C08CE001C08EE0AA
:1005900085B91092030105C08FE085B981E0809391
:1005A000030140EF50EC63E070E04093040150938E
:1005B000050160930601709307018181833029F45E
:1005C000848181708093030107C0843029F486B14F
:1005D0008093080181E0089580E008952EE088E18D
:1005E00090E00FB6F894A895809360000FBE20931A
:1005F00060008FE384B915B817B888B98BB1897FCB
:100600008BB98AB186608AB98AEFA895EFE6F7E1DF
:100610003197F1F700C000008150B9F71AB889EF9F
:100620008BB984E090E028E025B9FFEB37E249E0A0
:10063000F15030404040E1F700C00000269501979E
:1006400099F715B885E085BD2EDE789410E0A89561
:100650003FDD8091040190910501A0910601B091C8
:1006600007010097A105B10569F0115059F40197F0
:10067000A109B1098093040190930501A09306019B
:10068000B09307018091040190910501A0910601AA
:10069000B0910701892B8A2B8B2B09F42898809124
:1006A0000301882369F025B1CE0188279078892F2E
:1006B0008695869586952F7E282B25B92197C7CFBD
:0806C0002C98C5CFF894FFCF80
:0206C8005AFFD7
:00000001FF
